{
  "_format": "hh-sol-artifact-1",
  "contractName": "EventManager",
  "sourceName": "contracts/EventManager.sol",
  "abi": [
    {
      "inputs": [
        {
          "internalType": "contract EventNFT",
          "name": "_eventNFT",
          "type": "address"
        }
      ],
      "stateMutability": "nonpayable",
      "type": "constructor"
    },
    {
      "inputs": [
        {
          "internalType": "address",
          "name": "user",
          "type": "address"
        },
        {
          "internalType": "uint256",
          "name": "eventId",
          "type": "uint256"
        }
      ],
      "name": "AlreadyRegistered",
      "type": "error"
    },
    {
      "inputs": [
        {
          "internalType": "uint256",
          "name": "eventId",
          "type": "uint256"
        }
      ],
      "name": "EventAlreadyExists",
      "type": "error"
    },
    {
      "inputs": [
        {
          "internalType": "uint256",
          "name": "eventId",
          "type": "uint256"
        }
      ],
      "name": "EventDoesNotExist",
      "type": "error"
    },
    {
      "inputs": [
        {
          "internalType": "address",
          "name": "user",
          "type": "address"
        },
        {
          "internalType": "uint256",
          "name": "eventId",
          "type": "uint256"
        }
      ],
      "name": "NoNFTForEvent",
      "type": "error"
    },
    {
      "inputs": [
        {
          "internalType": "address",
          "name": "user",
          "type": "address"
        }
      ],
      "name": "NotAnNFTHolder",
      "type": "error"
    },
    {
      "inputs": [
        {
          "internalType": "uint256",
          "name": "eventId",
          "type": "uint256"
        },
        {
          "internalType": "string",
          "name": "eventName",
          "type": "string"
        }
      ],
      "name": "createEvent",
      "outputs": [],
      "stateMutability": "nonpayable",
      "type": "function"
    },
    {
      "inputs": [],
      "name": "eventNFT",
      "outputs": [
        {
          "internalType": "contract EventNFT",
          "name": "",
          "type": "address"
        }
      ],
      "stateMutability": "view",
      "type": "function"
    },
    {
      "inputs": [
        {
          "internalType": "uint256",
          "name": "",
          "type": "uint256"
        }
      ],
      "name": "events",
      "outputs": [
        {
          "internalType": "string",
          "name": "name",
          "type": "string"
        },
        {
          "internalType": "uint256",
          "name": "id",
          "type": "uint256"
        },
        {
          "internalType": "bool",
          "name": "exists",
          "type": "bool"
        }
      ],
      "stateMutability": "view",
      "type": "function"
    },
    {
      "inputs": [
        {
          "internalType": "uint256",
          "name": "eventId",
          "type": "uint256"
        },
        {
          "internalType": "address",
          "name": "user",
          "type": "address"
        }
      ],
      "name": "isRegistered",
      "outputs": [
        {
          "internalType": "bool",
          "name": "",
          "type": "bool"
        }
      ],
      "stateMutability": "view",
      "type": "function"
    },
    {
      "inputs": [
        {
          "internalType": "uint256",
          "name": "eventId",
          "type": "uint256"
        }
      ],
      "name": "registerForEvent",
      "outputs": [],
      "stateMutability": "nonpayable",
      "type": "function"
    },
    {
      "inputs": [
        {
          "internalType": "uint256",
          "name": "",
          "type": "uint256"
        },
        {
          "internalType": "address",
          "name": "",
          "type": "address"
        }
      ],
      "name": "registrations",
      "outputs": [
        {
          "internalType": "bool",
          "name": "",
          "type": "bool"
        }
      ],
      "stateMutability": "view",
      "type": "function"
    }
  ],
  "bytecode": "0x60806040523480156200001157600080fd5b50604051620011cd380380620011cd8339818101604052810190620000379190620000fc565b806000806101000a81548173ffffffffffffffffffffffffffffffffffffffff021916908373ffffffffffffffffffffffffffffffffffffffff160217905550506200012e565b600080fd5b600073ffffffffffffffffffffffffffffffffffffffff82169050919050565b6000620000b08262000083565b9050919050565b6000620000c482620000a3565b9050919050565b620000d681620000b7565b8114620000e257600080fd5b50565b600081519050620000f681620000cb565b92915050565b6000602082840312156200011557620001146200007e565b5b60006200012584828501620000e5565b91505092915050565b61108f806200013e6000396000f3fe608060405234801561001057600080fd5b50600436106100625760003560e01c80630b791430146100675780632f26052014610099578063406db843146100b7578063a1d255e1146100d3578063b1ed1e6c146100ef578063b81f6e181461011f575b600080fd5b610081600480360381019061007c91906108ec565b61014f565b604051610090939291906109d3565b60405180910390f35b6100a161020e565b6040516100ae9190610a90565b60405180910390f35b6100d160048036038101906100cc91906108ec565b610232565b005b6100ed60048036038101906100e89190610be0565b6102d4565b005b61010960048036038101906101049190610c7a565b610355565b6040516101169190610cba565b60405180910390f35b61013960048036038101906101349190610c7a565b610384565b6040516101469190610cba565b60405180910390f35b600160205280600052604060002060009150905080600001805461017290610d04565b80601f016020809104026020016040519081016040528092919081815260200182805461019e90610d04565b80156101eb5780601f106101c0576101008083540402835291602001916101eb565b820191906000526020600020905b8154815290600101906020018083116101ce57829003601f168201915b5050505050908060010154908060020160009054906101000a900460ff16905083565b60008054906101000a900473ffffffffffffffffffffffffffffffffffffffff1681565b61023b816103ec565b61024433610454565b60006102503383610536565b905061025d813384610747565b6102673383610793565b60016002600084815260200190815260200160002060003373ffffffffffffffffffffffffffffffffffffffff1673ffffffffffffffffffffffffffffffffffffffff16815260200190815260200160002060006101000a81548160ff0219169083151502179055505050565b6102dd82610839565b6040518060600160405280828152602001838152602001600115158152506001600084815260200190815260200160002060008201518160000190816103239190610ed7565b506020820151816001015560408201518160020160006101000a81548160ff0219169083151502179055509050505050565b60026020528160005260406000206020528060005260406000206000915091509054906101000a900460ff1681565b60006002600084815260200190815260200160002060008373ffffffffffffffffffffffffffffffffffffffff1673ffffffffffffffffffffffffffffffffffffffff16815260200190815260200160002060009054906101000a900460ff16905092915050565b6001600082815260200190815260200160002060020160009054906101000a900460ff1661045157806040517fae7e94070000000000000000000000000000000000000000000000000000000081526004016104489190610fa9565b60405180910390fd5b50565b60008060009054906101000a900473ffffffffffffffffffffffffffffffffffffffff1673ffffffffffffffffffffffffffffffffffffffff166370a08231836040518263ffffffff1660e01b81526004016104b09190610fd3565b602060405180830381865afa1580156104cd573d6000803e3d6000fd5b505050506040513d601f19601f820116820180604052508101906104f19190611003565b0361053357806040517fdca0428200000000000000000000000000000000000000000000000000000000815260040161052a9190610fd3565b60405180910390fd5b50565b60008060008054906101000a900473ffffffffffffffffffffffffffffffffffffffff1673ffffffffffffffffffffffffffffffffffffffff166370a08231856040518263ffffffff1660e01b81526004016105929190610fd3565b602060405180830381865afa1580156105af573d6000803e3d6000fd5b505050506040513d601f19601f820116820180604052508101906105d39190611003565b905060005b8181101561073a5760008060009054906101000a900473ffffffffffffffffffffffffffffffffffffffff1673ffffffffffffffffffffffffffffffffffffffff16632f745c5987846040518363ffffffff1660e01b815260040161063e929190611030565b602060405180830381865afa15801561065b573d6000803e3d6000fd5b505050506040513d601f19601f8201168201806040525081019061067f9190611003565b90508460008054906101000a900473ffffffffffffffffffffffffffffffffffffffff1673ffffffffffffffffffffffffffffffffffffffff1663cbdede77836040518263ffffffff1660e01b81526004016106db9190610fa9565b602060405180830381865afa1580156106f8573d6000803e3d6000fd5b505050506040513d601f19601f8201168201806040525081019061071c9190611003565b0361072c57809350505050610741565b5080806001019150506105d8565b5060009150505b92915050565b6000830361078e5781816040517f487e7064000000000000000000000000000000000000000000000000000000008152600401610785929190611030565b60405180910390fd5b505050565b6002600082815260200190815260200160002060008373ffffffffffffffffffffffffffffffffffffffff1673ffffffffffffffffffffffffffffffffffffffff16815260200190815260200160002060009054906101000a900460ff16156108355781816040517f4baa597700000000000000000000000000000000000000000000000000000000815260040161082c929190611030565b60405180910390fd5b5050565b6001600082815260200190815260200160002060020160009054906101000a900460ff161561089f57806040517f3eb185360000000000000000000000000000000000000000000000000000000081526004016108969190610fa9565b60405180910390fd5b50565b6000604051905090565b600080fd5b600080fd5b6000819050919050565b6108c9816108b6565b81146108d457600080fd5b50565b6000813590506108e6816108c0565b92915050565b600060208284031215610902576109016108ac565b5b6000610910848285016108d7565b91505092915050565b600081519050919050565b600082825260208201905092915050565b60005b83811015610953578082015181840152602081019050610938565b60008484015250505050565b6000601f19601f8301169050919050565b600061097b82610919565b6109858185610924565b9350610995818560208601610935565b61099e8161095f565b840191505092915050565b6109b2816108b6565b82525050565b60008115159050919050565b6109cd816109b8565b82525050565b600060608201905081810360008301526109ed8186610970565b90506109fc60208301856109a9565b610a0960408301846109c4565b949350505050565b600073ffffffffffffffffffffffffffffffffffffffff82169050919050565b6000819050919050565b6000610a56610a51610a4c84610a11565b610a31565b610a11565b9050919050565b6000610a6882610a3b565b9050919050565b6000610a7a82610a5d565b9050919050565b610a8a81610a6f565b82525050565b6000602082019050610aa56000830184610a81565b92915050565b600080fd5b600080fd5b7f4e487b7100000000000000000000000000000000000000000000000000000000600052604160045260246000fd5b610aed8261095f565b810181811067ffffffffffffffff82111715610b0c57610b0b610ab5565b5b80604052505050565b6000610b1f6108a2565b9050610b2b8282610ae4565b919050565b600067ffffffffffffffff821115610b4b57610b4a610ab5565b5b610b548261095f565b9050602081019050919050565b82818337600083830152505050565b6000610b83610b7e84610b30565b610b15565b905082815260208101848484011115610b9f57610b9e610ab0565b5b610baa848285610b61565b509392505050565b600082601f830112610bc757610bc6610aab565b5b8135610bd7848260208601610b70565b91505092915050565b60008060408385031215610bf757610bf66108ac565b5b6000610c05858286016108d7565b925050602083013567ffffffffffffffff811115610c2657610c256108b1565b5b610c3285828601610bb2565b9150509250929050565b6000610c4782610a11565b9050919050565b610c5781610c3c565b8114610c6257600080fd5b50565b600081359050610c7481610c4e565b92915050565b60008060408385031215610c9157610c906108ac565b5b6000610c9f858286016108d7565b9250506020610cb085828601610c65565b9150509250929050565b6000602082019050610ccf60008301846109c4565b92915050565b7f4e487b7100000000000000000000000000000000000000000000000000000000600052602260045260246000fd5b60006002820490506001821680610d1c57607f821691505b602082108103610d2f57610d2e610cd5565b5b50919050565b60008190508160005260206000209050919050565b60006020601f8301049050919050565b600082821b905092915050565b600060088302610d977fffffffffffffffffffffffffffffffffffffffffffffffffffffffffffffffff82610d5a565b610da18683610d5a565b95508019841693508086168417925050509392505050565b6000610dd4610dcf610dca846108b6565b610a31565b6108b6565b9050919050565b6000819050919050565b610dee83610db9565b610e02610dfa82610ddb565b848454610d67565b825550505050565b600090565b610e17610e0a565b610e22818484610de5565b505050565b5b81811015610e4657610e3b600082610e0f565b600181019050610e28565b5050565b601f821115610e8b57610e5c81610d35565b610e6584610d4a565b81016020851015610e74578190505b610e88610e8085610d4a565b830182610e27565b50505b505050565b600082821c905092915050565b6000610eae60001984600802610e90565b1980831691505092915050565b6000610ec78383610e9d565b9150826002028217905092915050565b610ee082610919565b67ffffffffffffffff811115610ef957610ef8610ab5565b5b610f038254610d04565b610f0e828285610e4a565b600060209050601f831160018114610f415760008415610f2f578287015190505b610f398582610ebb565b865550610fa1565b601f198416610f4f86610d35565b60005b82811015610f7757848901518255600182019150602085019450602081019050610f52565b86831015610f945784890151610f90601f891682610e9d565b8355505b6001600288020188555050505b505050505050565b6000602082019050610fbe60008301846109a9565b92915050565b610fcd81610c3c565b82525050565b6000602082019050610fe86000830184610fc4565b92915050565b600081519050610ffd816108c0565b92915050565b600060208284031215611019576110186108ac565b5b600061102784828501610fee565b91505092915050565b60006040820190506110456000830185610fc4565b61105260208301846109a9565b939250505056fea2646970667358221220aaba100d7e03655ce29762d8a3b5f2c040f27bd757716f90e42e64e246aa42a264736f6c63430008180033",
  "linkReferences": {},
  "deployedLinkReferences": {}
}