{
  "_format": "hh-sol-artifact-1",
  "contractName": "EventNFT",
  "sourceName": "contracts/EventNFT.sol",
  "abi": [
    {
      "inputs": [],
      "stateMutability": "nonpayable",
      "type": "constructor"
    },
    {
      "inputs": [],
      "name": "ERC721EnumerableForbiddenBatchMint",
      "type": "error"
    },
    {
      "inputs": [
        {
          "internalType": "address",
          "name": "sender",
          "type": "address"
        },
        {
          "internalType": "uint256",
          "name": "tokenId",
          "type": "uint256"
        },
        {
          "internalType": "address",
          "name": "owner",
          "type": "address"
        }
      ],
      "name": "ERC721IncorrectOwner",
      "type": "error"
    },
    {
      "inputs": [
        {
          "internalType": "address",
          "name": "operator",
          "type": "address"
        },
        {
          "internalType": "uint256",
          "name": "tokenId",
          "type": "uint256"
        }
      ],
      "name": "ERC721InsufficientApproval",
      "type": "error"
    },
    {
      "inputs": [
        {
          "internalType": "address",
          "name": "approver",
          "type": "address"
        }
      ],
      "name": "ERC721InvalidApprover",
      "type": "error"
    },
    {
      "inputs": [
        {
          "internalType": "address",
          "name": "operator",
          "type": "address"
        }
      ],
      "name": "ERC721InvalidOperator",
      "type": "error"
    },
    {
      "inputs": [
        {
          "internalType": "address",
          "name": "owner",
          "type": "address"
        }
      ],
      "name": "ERC721InvalidOwner",
      "type": "error"
    },
    {
      "inputs": [
        {
          "internalType": "address",
          "name": "receiver",
          "type": "address"
        }
      ],
      "name": "ERC721InvalidReceiver",
      "type": "error"
    },
    {
      "inputs": [
        {
          "internalType": "address",
          "name": "sender",
          "type": "address"
        }
      ],
      "name": "ERC721InvalidSender",
      "type": "error"
    },
    {
      "inputs": [
        {
          "internalType": "uint256",
          "name": "tokenId",
          "type": "uint256"
        }
      ],
      "name": "ERC721NonexistentToken",
      "type": "error"
    },
    {
      "inputs": [
        {
          "internalType": "address",
          "name": "owner",
          "type": "address"
        },
        {
          "internalType": "uint256",
          "name": "index",
          "type": "uint256"
        }
      ],
      "name": "ERC721OutOfBoundsIndex",
      "type": "error"
    },
    {
      "inputs": [],
      "name": "EnforcedPause",
      "type": "error"
    },
    {
      "inputs": [],
      "name": "ExpectedPause",
      "type": "error"
    },
    {
      "inputs": [
        {
          "internalType": "address",
          "name": "owner",
          "type": "address"
        }
      ],
      "name": "OwnableInvalidOwner",
      "type": "error"
    },
    {
      "inputs": [
        {
          "internalType": "address",
          "name": "account",
          "type": "address"
        }
      ],
      "name": "OwnableUnauthorizedAccount",
      "type": "error"
    },
    {
      "anonymous": false,
      "inputs": [
        {
          "indexed": true,
          "internalType": "address",
          "name": "owner",
          "type": "address"
        },
        {
          "indexed": true,
          "internalType": "address",
          "name": "approved",
          "type": "address"
        },
        {
          "indexed": true,
          "internalType": "uint256",
          "name": "tokenId",
          "type": "uint256"
        }
      ],
      "name": "Approval",
      "type": "event"
    },
    {
      "anonymous": false,
      "inputs": [
        {
          "indexed": true,
          "internalType": "address",
          "name": "owner",
          "type": "address"
        },
        {
          "indexed": true,
          "internalType": "address",
          "name": "operator",
          "type": "address"
        },
        {
          "indexed": false,
          "internalType": "bool",
          "name": "approved",
          "type": "bool"
        }
      ],
      "name": "ApprovalForAll",
      "type": "event"
    },
    {
      "anonymous": false,
      "inputs": [
        {
          "indexed": true,
          "internalType": "address",
          "name": "previousOwner",
          "type": "address"
        },
        {
          "indexed": true,
          "internalType": "address",
          "name": "newOwner",
          "type": "address"
        }
      ],
      "name": "OwnershipTransferred",
      "type": "event"
    },
    {
      "anonymous": false,
      "inputs": [
        {
          "indexed": false,
          "internalType": "address",
          "name": "account",
          "type": "address"
        }
      ],
      "name": "Paused",
      "type": "event"
    },
    {
      "anonymous": false,
      "inputs": [
        {
          "indexed": true,
          "internalType": "address",
          "name": "from",
          "type": "address"
        },
        {
          "indexed": true,
          "internalType": "address",
          "name": "to",
          "type": "address"
        },
        {
          "indexed": true,
          "internalType": "uint256",
          "name": "tokenId",
          "type": "uint256"
        }
      ],
      "name": "Transfer",
      "type": "event"
    },
    {
      "anonymous": false,
      "inputs": [
        {
          "indexed": false,
          "internalType": "address",
          "name": "account",
          "type": "address"
        }
      ],
      "name": "Unpaused",
      "type": "event"
    },
    {
      "inputs": [
        {
          "internalType": "address",
          "name": "to",
          "type": "address"
        },
        {
          "internalType": "uint256",
          "name": "tokenId",
          "type": "uint256"
        }
      ],
      "name": "approve",
      "outputs": [],
      "stateMutability": "nonpayable",
      "type": "function"
    },
    {
      "inputs": [
        {
          "internalType": "address",
          "name": "owner",
          "type": "address"
        }
      ],
      "name": "balanceOf",
      "outputs": [
        {
          "internalType": "uint256",
          "name": "",
          "type": "uint256"
        }
      ],
      "stateMutability": "view",
      "type": "function"
    },
    {
      "inputs": [
        {
          "internalType": "uint256",
          "name": "tokenId",
          "type": "uint256"
        }
      ],
      "name": "getApproved",
      "outputs": [
        {
          "internalType": "address",
          "name": "",
          "type": "address"
        }
      ],
      "stateMutability": "view",
      "type": "function"
    },
    {
      "inputs": [
        {
          "internalType": "uint256",
          "name": "tokenId",
          "type": "uint256"
        }
      ],
      "name": "getEventIdForToken",
      "outputs": [
        {
          "internalType": "uint256",
          "name": "",
          "type": "uint256"
        }
      ],
      "stateMutability": "view",
      "type": "function"
    },
    {
      "inputs": [
        {
          "internalType": "address",
          "name": "owner",
          "type": "address"
        },
        {
          "internalType": "address",
          "name": "operator",
          "type": "address"
        }
      ],
      "name": "isApprovedForAll",
      "outputs": [
        {
          "internalType": "bool",
          "name": "",
          "type": "bool"
        }
      ],
      "stateMutability": "view",
      "type": "function"
    },
    {
      "inputs": [
        {
          "internalType": "address",
          "name": "recipient",
          "type": "address"
        },
        {
          "internalType": "uint256",
          "name": "eventId",
          "type": "uint256"
        }
      ],
      "name": "mintForEvent",
      "outputs": [],
      "stateMutability": "nonpayable",
      "type": "function"
    },
    {
      "inputs": [],
      "name": "name",
      "outputs": [
        {
          "internalType": "string",
          "name": "",
          "type": "string"
        }
      ],
      "stateMutability": "view",
      "type": "function"
    },
    {
      "inputs": [],
      "name": "owner",
      "outputs": [
        {
          "internalType": "address",
          "name": "",
          "type": "address"
        }
      ],
      "stateMutability": "view",
      "type": "function"
    },
    {
      "inputs": [
        {
          "internalType": "uint256",
          "name": "tokenId",
          "type": "uint256"
        }
      ],
      "name": "ownerOf",
      "outputs": [
        {
          "internalType": "address",
          "name": "",
          "type": "address"
        }
      ],
      "stateMutability": "view",
      "type": "function"
    },
    {
      "inputs": [],
      "name": "pause",
      "outputs": [],
      "stateMutability": "nonpayable",
      "type": "function"
    },
    {
      "inputs": [],
      "name": "paused",
      "outputs": [
        {
          "internalType": "bool",
          "name": "",
          "type": "bool"
        }
      ],
      "stateMutability": "view",
      "type": "function"
    },
    {
      "inputs": [],
      "name": "renounceOwnership",
      "outputs": [],
      "stateMutability": "nonpayable",
      "type": "function"
    },
    {
      "inputs": [
        {
          "internalType": "address",
          "name": "from",
          "type": "address"
        },
        {
          "internalType": "address",
          "name": "to",
          "type": "address"
        },
        {
          "internalType": "uint256",
          "name": "tokenId",
          "type": "uint256"
        }
      ],
      "name": "safeTransferFrom",
      "outputs": [],
      "stateMutability": "nonpayable",
      "type": "function"
    },
    {
      "inputs": [
        {
          "internalType": "address",
          "name": "from",
          "type": "address"
        },
        {
          "internalType": "address",
          "name": "to",
          "type": "address"
        },
        {
          "internalType": "uint256",
          "name": "tokenId",
          "type": "uint256"
        },
        {
          "internalType": "bytes",
          "name": "data",
          "type": "bytes"
        }
      ],
      "name": "safeTransferFrom",
      "outputs": [],
      "stateMutability": "nonpayable",
      "type": "function"
    },
    {
      "inputs": [
        {
          "internalType": "address",
          "name": "operator",
          "type": "address"
        },
        {
          "internalType": "bool",
          "name": "approved",
          "type": "bool"
        }
      ],
      "name": "setApprovalForAll",
      "outputs": [],
      "stateMutability": "nonpayable",
      "type": "function"
    },
    {
      "inputs": [
        {
          "internalType": "bytes4",
          "name": "interfaceId",
          "type": "bytes4"
        }
      ],
      "name": "supportsInterface",
      "outputs": [
        {
          "internalType": "bool",
          "name": "",
          "type": "bool"
        }
      ],
      "stateMutability": "view",
      "type": "function"
    },
    {
      "inputs": [],
      "name": "symbol",
      "outputs": [
        {
          "internalType": "string",
          "name": "",
          "type": "string"
        }
      ],
      "stateMutability": "view",
      "type": "function"
    },
    {
      "inputs": [
        {
          "internalType": "uint256",
          "name": "index",
          "type": "uint256"
        }
      ],
      "name": "tokenByIndex",
      "outputs": [
        {
          "internalType": "uint256",
          "name": "",
          "type": "uint256"
        }
      ],
      "stateMutability": "view",
      "type": "function"
    },
    {
      "inputs": [
        {
          "internalType": "uint256",
          "name": "",
          "type": "uint256"
        }
      ],
      "name": "tokenEventMapping",
      "outputs": [
        {
          "internalType": "uint256",
          "name": "",
          "type": "uint256"
        }
      ],
      "stateMutability": "view",
      "type": "function"
    },
    {
      "inputs": [
        {
          "internalType": "address",
          "name": "owner",
          "type": "address"
        },
        {
          "internalType": "uint256",
          "name": "index",
          "type": "uint256"
        }
      ],
      "name": "tokenOfOwnerByIndex",
      "outputs": [
        {
          "internalType": "uint256",
          "name": "",
          "type": "uint256"
        }
      ],
      "stateMutability": "view",
      "type": "function"
    },
    {
      "inputs": [
        {
          "internalType": "uint256",
          "name": "tokenId",
          "type": "uint256"
        }
      ],
      "name": "tokenURI",
      "outputs": [
        {
          "internalType": "string",
          "name": "",
          "type": "string"
        }
      ],
      "stateMutability": "view",
      "type": "function"
    },
    {
      "inputs": [],
      "name": "totalSupply",
      "outputs": [
        {
          "internalType": "uint256",
          "name": "",
          "type": "uint256"
        }
      ],
      "stateMutability": "view",
      "type": "function"
    },
    {
      "inputs": [
        {
          "internalType": "address",
          "name": "from",
          "type": "address"
        },
        {
          "internalType": "address",
          "name": "to",
          "type": "address"
        },
        {
          "internalType": "uint256",
          "name": "tokenId",
          "type": "uint256"
        }
      ],
      "name": "transferFrom",
      "outputs": [],
      "stateMutability": "nonpayable",
      "type": "function"
    },
    {
      "inputs": [
        {
          "internalType": "address",
          "name": "newOwner",
          "type": "address"
        }
      ],
      "name": "transferOwnership",
      "outputs": [],
      "stateMutability": "nonpayable",
      "type": "function"
    },
    {
      "inputs": [],
      "name": "unpause",
      "outputs": [],
      "stateMutability": "nonpayable",
      "type": "function"
    }
  ],
  "bytecode": "0x60806040523480156200001157600080fd5b50336040518060400160405280600881526020017f4576656e744e46540000000000000000000000000000000000000000000000008152506040518060400160405280600381526020017f454e54000000000000000000000000000000000000000000000000000000000081525081600090816200009091906200048d565b508060019081620000a291906200048d565b5050506000600a60006101000a81548160ff021916908315150217905550600073ffffffffffffffffffffffffffffffffffffffff168173ffffffffffffffffffffffffffffffffffffffff1603620001355760006040517f1e4fbdf70000000000000000000000000000000000000000000000000000000081526004016200012c9190620005b9565b60405180910390fd5b62000146816200014d60201b60201c565b50620005d6565b6000600a60019054906101000a900473ffffffffffffffffffffffffffffffffffffffff16905081600a60016101000a81548173ffffffffffffffffffffffffffffffffffffffff021916908373ffffffffffffffffffffffffffffffffffffffff1602179055508173ffffffffffffffffffffffffffffffffffffffff168173ffffffffffffffffffffffffffffffffffffffff167f8be0079c531659141344cd1fd0a4f28419497f9722a3daafe3b4186f6b6457e060405160405180910390a35050565b600081519050919050565b7f4e487b7100000000000000000000000000000000000000000000000000000000600052604160045260246000fd5b7f4e487b7100000000000000000000000000000000000000000000000000000000600052602260045260246000fd5b600060028204905060018216806200029557607f821691505b602082108103620002ab57620002aa6200024d565b5b50919050565b60008190508160005260206000209050919050565b60006020601f8301049050919050565b600082821b905092915050565b600060088302620003157fffffffffffffffffffffffffffffffffffffffffffffffffffffffffffffffff82620002d6565b620003218683620002d6565b95508019841693508086168417925050509392505050565b6000819050919050565b6000819050919050565b60006200036e62000368620003628462000339565b62000343565b62000339565b9050919050565b6000819050919050565b6200038a836200034d565b620003a2620003998262000375565b848454620002e3565b825550505050565b600090565b620003b9620003aa565b620003c68184846200037f565b505050565b5b81811015620003ee57620003e2600082620003af565b600181019050620003cc565b5050565b601f8211156200043d576200040781620002b1565b6200041284620002c6565b8101602085101562000422578190505b6200043a6200043185620002c6565b830182620003cb565b50505b505050565b600082821c905092915050565b6000620004626000198460080262000442565b1980831691505092915050565b60006200047d83836200044f565b9150826002028217905092915050565b620004988262000213565b67ffffffffffffffff811115620004b457620004b36200021e565b5b620004c082546200027c565b620004cd828285620003f2565b600060209050601f831160018114620005055760008415620004f0578287015190505b620004fc85826200046f565b8655506200056c565b601f1984166200051586620002b1565b60005b828110156200053f5784890151825560018201915060208501945060208101905062000518565b868310156200055f57848901516200055b601f8916826200044f565b8355505b6001600288020188555050505b505050505050565b600073ffffffffffffffffffffffffffffffffffffffff82169050919050565b6000620005a18262000574565b9050919050565b620005b38162000594565b82525050565b6000602082019050620005d06000830184620005a8565b92915050565b612adf80620005e66000396000f3fe608060405234801561001057600080fd5b50600436106101735760003560e01c80636352211e116100de578063a22cb46511610097578063cbdede7711610071578063cbdede7714610438578063e985e9c514610468578063f2fde38b14610498578063fae277c3146104b457610173565b8063a22cb465146103d0578063b88d4fde146103ec578063c87b56dd1461040857610173565b80636352211e1461032057806370a0823114610350578063715018a6146103805780638456cb591461038a5780638da5cb5b1461039457806395d89b41146103b257610173565b806323b872dd1161013057806323b872dd146102605780632f745c591461027c5780633f4ba83a146102ac57806342842e0e146102b65780634f6ccce7146102d25780635c975abb1461030257610173565b806301ffc9a71461017857806306fdde03146101a8578063081812fc146101c6578063095ea7b3146101f657806318160ddd146102125780631ebd587314610230575b600080fd5b610192600480360381019061018d9190612234565b6104d0565b60405161019f919061227c565b60405180910390f35b6101b06104e2565b6040516101bd9190612327565b60405180910390f35b6101e060048036038101906101db919061237f565b610574565b6040516101ed91906123ed565b60405180910390f35b610210600480360381019061020b9190612434565b610590565b005b61021a6105a6565b6040516102279190612483565b60405180910390f35b61024a6004803603810190610245919061237f565b6105b3565b6040516102579190612483565b60405180910390f35b61027a6004803603810190610275919061249e565b6105cb565b005b61029660048036038101906102919190612434565b6106cd565b6040516102a39190612483565b60405180910390f35b6102b4610776565b005b6102d060048036038101906102cb919061249e565b610788565b005b6102ec60048036038101906102e7919061237f565b6107a8565b6040516102f99190612483565b60405180910390f35b61030a61081e565b604051610317919061227c565b60405180910390f35b61033a6004803603810190610335919061237f565b610835565b60405161034791906123ed565b60405180910390f35b61036a600480360381019061036591906124f1565b610847565b6040516103779190612483565b60405180910390f35b610388610901565b005b610392610915565b005b61039c610927565b6040516103a991906123ed565b60405180910390f35b6103ba610951565b6040516103c79190612327565b60405180910390f35b6103ea60048036038101906103e5919061254a565b6109e3565b005b610406600480360381019061040191906126bf565b6109f9565b005b610422600480360381019061041d919061237f565b610a16565b60405161042f9190612327565b60405180910390f35b610452600480360381019061044d919061237f565b610a7f565b60405161045f9190612483565b60405180910390f35b610482600480360381019061047d9190612742565b610a9c565b60405161048f919061227c565b60405180910390f35b6104b260048036038101906104ad91906124f1565b610b30565b005b6104ce60048036038101906104c99190612434565b610bb6565b005b60006104db82610c06565b9050919050565b6060600080546104f1906127b1565b80601f016020809104026020016040519081016040528092919081815260200182805461051d906127b1565b801561056a5780601f1061053f5761010080835404028352916020019161056a565b820191906000526020600020905b81548152906001019060200180831161054d57829003601f168201915b5050505050905090565b600061057f82610c80565b5061058982610d08565b9050919050565b6105a2828261059d610d45565b610d4d565b5050565b6000600880549050905090565b600c6020528060005260406000206000915090505481565b600073ffffffffffffffffffffffffffffffffffffffff168273ffffffffffffffffffffffffffffffffffffffff160361063d5760006040517f64a0ae9200000000000000000000000000000000000000000000000000000000815260040161063491906123ed565b60405180910390fd5b6000610651838361064c610d45565b610d5f565b90508373ffffffffffffffffffffffffffffffffffffffff168173ffffffffffffffffffffffffffffffffffffffff16146106c7578382826040517f64283d7b0000000000000000000000000000000000000000000000000000000081526004016106be939291906127e2565b60405180910390fd5b50505050565b60006106d883610847565b821061071d5782826040517fa57d13dc000000000000000000000000000000000000000000000000000000008152600401610714929190612819565b60405180910390fd5b600660008473ffffffffffffffffffffffffffffffffffffffff1673ffffffffffffffffffffffffffffffffffffffff168152602001908152602001600020600083815260200190815260200160002054905092915050565b61077e610d75565b610786610dfc565b565b6107a3838383604051806020016040528060008152506109f9565b505050565b60006107b26105a6565b82106107f8576000826040517fa57d13dc0000000000000000000000000000000000000000000000000000000081526004016107ef929190612819565b60405180910390fd5b6008828154811061080c5761080b612842565b5b90600052602060002001549050919050565b6000600a60009054906101000a900460ff16905090565b600061084082610c80565b9050919050565b60008073ffffffffffffffffffffffffffffffffffffffff168273ffffffffffffffffffffffffffffffffffffffff16036108ba5760006040517f89c62b640000000000000000000000000000000000000000000000000000000081526004016108b191906123ed565b60405180910390fd5b600360008373ffffffffffffffffffffffffffffffffffffffff1673ffffffffffffffffffffffffffffffffffffffff168152602001908152602001600020549050919050565b610909610d75565b6109136000610e5f565b565b61091d610d75565b610925610f25565b565b6000600a60019054906101000a900473ffffffffffffffffffffffffffffffffffffffff16905090565b606060018054610960906127b1565b80601f016020809104026020016040519081016040528092919081815260200182805461098c906127b1565b80156109d95780601f106109ae576101008083540402835291602001916109d9565b820191906000526020600020905b8154815290600101906020018083116109bc57829003601f168201915b5050505050905090565b6109f56109ee610d45565b8383610f88565b5050565b610a048484846105cb565b610a10848484846110f7565b50505050565b6060610a2182610c80565b506000610a2c6112ae565b90506000815111610a4c5760405180602001604052806000815250610a77565b80610a56846112c5565b604051602001610a679291906128ad565b6040516020818303038152906040525b915050919050565b6000600c6000838152602001908152602001600020549050919050565b6000600560008473ffffffffffffffffffffffffffffffffffffffff1673ffffffffffffffffffffffffffffffffffffffff16815260200190815260200160002060008373ffffffffffffffffffffffffffffffffffffffff1673ffffffffffffffffffffffffffffffffffffffff16815260200190815260200160002060009054906101000a900460ff16905092915050565b610b38610d75565b600073ffffffffffffffffffffffffffffffffffffffff168173ffffffffffffffffffffffffffffffffffffffff1603610baa5760006040517f1e4fbdf7000000000000000000000000000000000000000000000000000000008152600401610ba191906123ed565b60405180910390fd5b610bb381610e5f565b50565b610bbe610d75565b6000600b549050610bcf8382611393565b81600c6000838152602001908152602001600020819055506001600b6000828254610bfa9190612900565b92505081905550505050565b60007f780e9d63000000000000000000000000000000000000000000000000000000007bffffffffffffffffffffffffffffffffffffffffffffffffffffffff1916827bffffffffffffffffffffffffffffffffffffffffffffffffffffffff19161480610c795750610c78826113b1565b5b9050919050565b600080610c8c83611493565b9050600073ffffffffffffffffffffffffffffffffffffffff168173ffffffffffffffffffffffffffffffffffffffff1603610cff57826040517f7e273289000000000000000000000000000000000000000000000000000000008152600401610cf69190612483565b60405180910390fd5b80915050919050565b60006004600083815260200190815260200160002060009054906101000a900473ffffffffffffffffffffffffffffffffffffffff169050919050565b600033905090565b610d5a83838360016114d0565b505050565b6000610d6c848484611695565b90509392505050565b610d7d610d45565b73ffffffffffffffffffffffffffffffffffffffff16610d9b610927565b73ffffffffffffffffffffffffffffffffffffffff1614610dfa57610dbe610d45565b6040517f118cdaa7000000000000000000000000000000000000000000000000000000008152600401610df191906123ed565b60405180910390fd5b565b610e046116b3565b6000600a60006101000a81548160ff0219169083151502179055507f5db9ee0a495bf2e6ff9c91a7834c1ba4fdd244a5e8aa4e537bd38aeae4b073aa610e48610d45565b604051610e5591906123ed565b60405180910390a1565b6000600a60019054906101000a900473ffffffffffffffffffffffffffffffffffffffff16905081600a60016101000a81548173ffffffffffffffffffffffffffffffffffffffff021916908373ffffffffffffffffffffffffffffffffffffffff1602179055508173ffffffffffffffffffffffffffffffffffffffff168173ffffffffffffffffffffffffffffffffffffffff167f8be0079c531659141344cd1fd0a4f28419497f9722a3daafe3b4186f6b6457e060405160405180910390a35050565b610f2d6116f3565b6001600a60006101000a81548160ff0219169083151502179055507f62e78cea01bee320cd4e420270b5ea74000d11b0c9f74754ebdbfc544b05a258610f71610d45565b604051610f7e91906123ed565b60405180910390a1565b600073ffffffffffffffffffffffffffffffffffffffff168273ffffffffffffffffffffffffffffffffffffffff1603610ff957816040517f5b08ba18000000000000000000000000000000000000000000000000000000008152600401610ff091906123ed565b60405180910390fd5b80600560008573ffffffffffffffffffffffffffffffffffffffff1673ffffffffffffffffffffffffffffffffffffffff16815260200190815260200160002060008473ffffffffffffffffffffffffffffffffffffffff1673ffffffffffffffffffffffffffffffffffffffff16815260200190815260200160002060006101000a81548160ff0219169083151502179055508173ffffffffffffffffffffffffffffffffffffffff168373ffffffffffffffffffffffffffffffffffffffff167f17307eab39ab6107e8899845ad3d59bd9653f200f220920489ca2b5937696c31836040516110ea919061227c565b60405180910390a3505050565b60008373ffffffffffffffffffffffffffffffffffffffff163b11156112a8578273ffffffffffffffffffffffffffffffffffffffff1663150b7a0261113b610d45565b8685856040518563ffffffff1660e01b815260040161115d9493929190612989565b6020604051808303816000875af192505050801561119957506040513d601f19601f8201168201806040525081019061119691906129ea565b60015b61121d573d80600081146111c9576040519150601f19603f3d011682016040523d82523d6000602084013e6111ce565b606091505b50600081510361121557836040517f64a0ae9200000000000000000000000000000000000000000000000000000000815260040161120c91906123ed565b60405180910390fd5b805181602001fd5b63150b7a0260e01b7bffffffffffffffffffffffffffffffffffffffffffffffffffffffff1916817bffffffffffffffffffffffffffffffffffffffffffffffffffffffff1916146112a657836040517f64a0ae9200000000000000000000000000000000000000000000000000000000815260040161129d91906123ed565b60405180910390fd5b505b50505050565b606060405180602001604052806000815250905090565b6060600060016112d484611734565b01905060008167ffffffffffffffff8111156112f3576112f2612594565b5b6040519080825280601f01601f1916602001820160405280156113255781602001600182028036833780820191505090505b509050600082602001820190505b600115611388578080600190039150507f3031323334353637383961626364656600000000000000000000000000000000600a86061a8153600a858161137c5761137b612a17565b5b04945060008503611333575b819350505050919050565b6113ad828260405180602001604052806000815250611887565b5050565b60007f80ac58cd000000000000000000000000000000000000000000000000000000007bffffffffffffffffffffffffffffffffffffffffffffffffffffffff1916827bffffffffffffffffffffffffffffffffffffffffffffffffffffffff1916148061147c57507f5b5e139f000000000000000000000000000000000000000000000000000000007bffffffffffffffffffffffffffffffffffffffffffffffffffffffff1916827bffffffffffffffffffffffffffffffffffffffffffffffffffffffff1916145b8061148c575061148b826118a3565b5b9050919050565b60006002600083815260200190815260200160002060009054906101000a900473ffffffffffffffffffffffffffffffffffffffff169050919050565b80806115095750600073ffffffffffffffffffffffffffffffffffffffff168273ffffffffffffffffffffffffffffffffffffffff1614155b1561163d57600061151984610c80565b9050600073ffffffffffffffffffffffffffffffffffffffff168373ffffffffffffffffffffffffffffffffffffffff161415801561158457508273ffffffffffffffffffffffffffffffffffffffff168173ffffffffffffffffffffffffffffffffffffffff1614155b801561159757506115958184610a9c565b155b156115d957826040517fa9fbf51f0000000000000000000000000000000000000000000000000000000081526004016115d091906123ed565b60405180910390fd5b811561163b57838573ffffffffffffffffffffffffffffffffffffffff168273ffffffffffffffffffffffffffffffffffffffff167f8c5be1e5ebec7d5bd14f71427d1e84f3dd0314c0f7b2291e5b200ac8c7c3b92560405160405180910390a45b505b836004600085815260200190815260200160002060006101000a81548173ffffffffffffffffffffffffffffffffffffffff021916908373ffffffffffffffffffffffffffffffffffffffff16021790555050505050565b600061169f6116f3565b6116aa84848461190d565b90509392505050565b6116bb61081e565b6116f1576040517f8dfc202b00000000000000000000000000000000000000000000000000000000815260040160405180910390fd5b565b6116fb61081e565b15611732576040517fd93c066500000000000000000000000000000000000000000000000000000000815260040160405180910390fd5b565b600080600090507a184f03e93ff9f4daa797ed6e38ed64bf6a1f0100000000000000008310611792577a184f03e93ff9f4daa797ed6e38ed64bf6a1f010000000000000000838161178857611787612a17565b5b0492506040810190505b6d04ee2d6d415b85acef810000000083106117cf576d04ee2d6d415b85acef810000000083816117c5576117c4612a17565b5b0492506020810190505b662386f26fc1000083106117fe57662386f26fc1000083816117f4576117f3612a17565b5b0492506010810190505b6305f5e1008310611827576305f5e100838161181d5761181c612a17565b5b0492506008810190505b612710831061184c57612710838161184257611841612a17565b5b0492506004810190505b6064831061186f576064838161186557611864612a17565b5b0492506002810190505b600a831061187e576001810190505b80915050919050565b6118918383611a2a565b61189e60008484846110f7565b505050565b60007f01ffc9a7000000000000000000000000000000000000000000000000000000007bffffffffffffffffffffffffffffffffffffffffffffffffffffffff1916827bffffffffffffffffffffffffffffffffffffffffffffffffffffffff1916149050919050565b60008061191b858585611b23565b9050600073ffffffffffffffffffffffffffffffffffffffff168173ffffffffffffffffffffffffffffffffffffffff160361195f5761195a84611d3d565b61199e565b8473ffffffffffffffffffffffffffffffffffffffff168173ffffffffffffffffffffffffffffffffffffffff161461199d5761199c8185611d86565b5b5b600073ffffffffffffffffffffffffffffffffffffffff168573ffffffffffffffffffffffffffffffffffffffff16036119e0576119db84611ee7565b611a1f565b8473ffffffffffffffffffffffffffffffffffffffff168173ffffffffffffffffffffffffffffffffffffffff1614611a1e57611a1d8585611fb8565b5b5b809150509392505050565b600073ffffffffffffffffffffffffffffffffffffffff168273ffffffffffffffffffffffffffffffffffffffff1603611a9c5760006040517f64a0ae92000000000000000000000000000000000000000000000000000000008152600401611a9391906123ed565b60405180910390fd5b6000611aaa83836000610d5f565b9050600073ffffffffffffffffffffffffffffffffffffffff168173ffffffffffffffffffffffffffffffffffffffff1614611b1e5760006040517f73c6ac6e000000000000000000000000000000000000000000000000000000008152600401611b1591906123ed565b60405180910390fd5b505050565b600080611b2f84611493565b9050600073ffffffffffffffffffffffffffffffffffffffff168373ffffffffffffffffffffffffffffffffffffffff1614611b7157611b70818486612043565b5b600073ffffffffffffffffffffffffffffffffffffffff168173ffffffffffffffffffffffffffffffffffffffff1614611c0257611bb36000856000806114d0565b6001600360008373ffffffffffffffffffffffffffffffffffffffff1673ffffffffffffffffffffffffffffffffffffffff168152602001908152602001600020600082825403925050819055505b600073ffffffffffffffffffffffffffffffffffffffff168573ffffffffffffffffffffffffffffffffffffffff1614611c85576001600360008773ffffffffffffffffffffffffffffffffffffffff1673ffffffffffffffffffffffffffffffffffffffff168152602001908152602001600020600082825401925050819055505b846002600086815260200190815260200160002060006101000a81548173ffffffffffffffffffffffffffffffffffffffff021916908373ffffffffffffffffffffffffffffffffffffffff160217905550838573ffffffffffffffffffffffffffffffffffffffff168273ffffffffffffffffffffffffffffffffffffffff167fddf252ad1be2c89b69c2b068fc378daa952ba7f163c4a11628f55a4df523b3ef60405160405180910390a4809150509392505050565b6008805490506009600083815260200190815260200160002081905550600881908060018154018082558091505060019003906000526020600020016000909190919091505550565b6000611d9183610847565b9050600060076000848152602001908152602001600020549050818114611e76576000600660008673ffffffffffffffffffffffffffffffffffffffff1673ffffffffffffffffffffffffffffffffffffffff168152602001908152602001600020600084815260200190815260200160002054905080600660008773ffffffffffffffffffffffffffffffffffffffff1673ffffffffffffffffffffffffffffffffffffffff168152602001908152602001600020600084815260200190815260200160002081905550816007600083815260200190815260200160002081905550505b6007600084815260200190815260200160002060009055600660008573ffffffffffffffffffffffffffffffffffffffff1673ffffffffffffffffffffffffffffffffffffffff16815260200190815260200160002060008381526020019081526020016000206000905550505050565b60006001600880549050611efb9190612a46565b9050600060096000848152602001908152602001600020549050600060088381548110611f2b57611f2a612842565b5b906000526020600020015490508060088381548110611f4d57611f4c612842565b5b906000526020600020018190555081600960008381526020019081526020016000208190555060096000858152602001908152602001600020600090556008805480611f9c57611f9b612a7a565b5b6001900381819060005260206000200160009055905550505050565b60006001611fc584610847565b611fcf9190612a46565b905081600660008573ffffffffffffffffffffffffffffffffffffffff1673ffffffffffffffffffffffffffffffffffffffff168152602001908152602001600020600083815260200190815260200160002081905550806007600084815260200190815260200160002081905550505050565b61204e838383612107565b61210257600073ffffffffffffffffffffffffffffffffffffffff168373ffffffffffffffffffffffffffffffffffffffff16036120c357806040517f7e2732890000000000000000000000000000000000000000000000000000000081526004016120ba9190612483565b60405180910390fd5b81816040517f177e802f0000000000000000000000000000000000000000000000000000000081526004016120f9929190612819565b60405180910390fd5b505050565b60008073ffffffffffffffffffffffffffffffffffffffff168373ffffffffffffffffffffffffffffffffffffffff16141580156121bf57508273ffffffffffffffffffffffffffffffffffffffff168473ffffffffffffffffffffffffffffffffffffffff161480612180575061217f8484610a9c565b5b806121be57508273ffffffffffffffffffffffffffffffffffffffff166121a683610d08565b73ffffffffffffffffffffffffffffffffffffffff16145b5b90509392505050565b6000604051905090565b600080fd5b600080fd5b60007fffffffff0000000000000000000000000000000000000000000000000000000082169050919050565b612211816121dc565b811461221c57600080fd5b50565b60008135905061222e81612208565b92915050565b60006020828403121561224a576122496121d2565b5b60006122588482850161221f565b91505092915050565b60008115159050919050565b61227681612261565b82525050565b6000602082019050612291600083018461226d565b92915050565b600081519050919050565b600082825260208201905092915050565b60005b838110156122d15780820151818401526020810190506122b6565b60008484015250505050565b6000601f19601f8301169050919050565b60006122f982612297565b61230381856122a2565b93506123138185602086016122b3565b61231c816122dd565b840191505092915050565b6000602082019050818103600083015261234181846122ee565b905092915050565b6000819050919050565b61235c81612349565b811461236757600080fd5b50565b60008135905061237981612353565b92915050565b600060208284031215612395576123946121d2565b5b60006123a38482850161236a565b91505092915050565b600073ffffffffffffffffffffffffffffffffffffffff82169050919050565b60006123d7826123ac565b9050919050565b6123e7816123cc565b82525050565b600060208201905061240260008301846123de565b92915050565b612411816123cc565b811461241c57600080fd5b50565b60008135905061242e81612408565b92915050565b6000806040838503121561244b5761244a6121d2565b5b60006124598582860161241f565b925050602061246a8582860161236a565b9150509250929050565b61247d81612349565b82525050565b60006020820190506124986000830184612474565b92915050565b6000806000606084860312156124b7576124b66121d2565b5b60006124c58682870161241f565b93505060206124d68682870161241f565b92505060406124e78682870161236a565b9150509250925092565b600060208284031215612507576125066121d2565b5b60006125158482850161241f565b91505092915050565b61252781612261565b811461253257600080fd5b50565b6000813590506125448161251e565b92915050565b60008060408385031215612561576125606121d2565b5b600061256f8582860161241f565b925050602061258085828601612535565b9150509250929050565b600080fd5b600080fd5b7f4e487b7100000000000000000000000000000000000000000000000000000000600052604160045260246000fd5b6125cc826122dd565b810181811067ffffffffffffffff821117156125eb576125ea612594565b5b80604052505050565b60006125fe6121c8565b905061260a82826125c3565b919050565b600067ffffffffffffffff82111561262a57612629612594565b5b612633826122dd565b9050602081019050919050565b82818337600083830152505050565b600061266261265d8461260f565b6125f4565b90508281526020810184848401111561267e5761267d61258f565b5b612689848285612640565b509392505050565b600082601f8301126126a6576126a561258a565b5b81356126b684826020860161264f565b91505092915050565b600080600080608085870312156126d9576126d86121d2565b5b60006126e78782880161241f565b94505060206126f88782880161241f565b93505060406127098782880161236a565b925050606085013567ffffffffffffffff81111561272a576127296121d7565b5b61273687828801612691565b91505092959194509250565b60008060408385031215612759576127586121d2565b5b60006127678582860161241f565b92505060206127788582860161241f565b9150509250929050565b7f4e487b7100000000000000000000000000000000000000000000000000000000600052602260045260246000fd5b600060028204905060018216806127c957607f821691505b6020821081036127dc576127db612782565b5b50919050565b60006060820190506127f760008301866123de565b6128046020830185612474565b61281160408301846123de565b949350505050565b600060408201905061282e60008301856123de565b61283b6020830184612474565b9392505050565b7f4e487b7100000000000000000000000000000000000000000000000000000000600052603260045260246000fd5b600081905092915050565b600061288782612297565b6128918185612871565b93506128a18185602086016122b3565b80840191505092915050565b60006128b9828561287c565b91506128c5828461287c565b91508190509392505050565b7f4e487b7100000000000000000000000000000000000000000000000000000000600052601160045260246000fd5b600061290b82612349565b915061291683612349565b925082820190508082111561292e5761292d6128d1565b5b92915050565b600081519050919050565b600082825260208201905092915050565b600061295b82612934565b612965818561293f565b93506129758185602086016122b3565b61297e816122dd565b840191505092915050565b600060808201905061299e60008301876123de565b6129ab60208301866123de565b6129b86040830185612474565b81810360608301526129ca8184612950565b905095945050505050565b6000815190506129e481612208565b92915050565b600060208284031215612a00576129ff6121d2565b5b6000612a0e848285016129d5565b91505092915050565b7f4e487b7100000000000000000000000000000000000000000000000000000000600052601260045260246000fd5b6000612a5182612349565b9150612a5c83612349565b9250828203905081811115612a7457612a736128d1565b5b92915050565b7f4e487b7100000000000000000000000000000000000000000000000000000000600052603160045260246000fdfea2646970667358221220bf2aeccfa714a71f1d30952798a5fbad3c5985b8a70fde858e1cb1ca59f99f6a64736f6c63430008180033",
  "linkReferences": {},
  "deployedLinkReferences": {}
}